{"abi":[{"type":"constructor","inputs":[],"stateMutability":"nonpayable"},{"type":"function","name":"approve","inputs":[{"name":"to","type":"address","internalType":"address"},{"name":"tokenId","type":"uint256","internalType":"uint256"}],"outputs":[],"stateMutability":"nonpayable"},{"type":"function","name":"balanceOf","inputs":[{"name":"owner","type":"address","internalType":"address"}],"outputs":[{"name":"","type":"uint256","internalType":"uint256"}],"stateMutability":"view"},{"type":"function","name":"getApproved","inputs":[{"name":"tokenId","type":"uint256","internalType":"uint256"}],"outputs":[{"name":"","type":"address","internalType":"address"}],"stateMutability":"view"},{"type":"function","name":"isApprovedForAll","inputs":[{"name":"owner","type":"address","internalType":"address"},{"name":"operator","type":"address","internalType":"address"}],"outputs":[{"name":"","type":"bool","internalType":"bool"}],"stateMutability":"view"},{"type":"function","name":"mintItem","inputs":[{"name":"to","type":"address","internalType":"address"},{"name":"uri","type":"string","internalType":"string"}],"outputs":[{"name":"","type":"uint256","internalType":"uint256"}],"stateMutability":"nonpayable"},{"type":"function","name":"name","inputs":[],"outputs":[{"name":"","type":"string","internalType":"string"}],"stateMutability":"view"},{"type":"function","name":"owner","inputs":[],"outputs":[{"name":"","type":"address","internalType":"address"}],"stateMutability":"view"},{"type":"function","name":"ownerOf","inputs":[{"name":"tokenId","type":"uint256","internalType":"uint256"}],"outputs":[{"name":"","type":"address","internalType":"address"}],"stateMutability":"view"},{"type":"function","name":"renounceOwnership","inputs":[],"outputs":[],"stateMutability":"nonpayable"},{"type":"function","name":"safeTransferFrom","inputs":[{"name":"from","type":"address","internalType":"address"},{"name":"to","type":"address","internalType":"address"},{"name":"tokenId","type":"uint256","internalType":"uint256"}],"outputs":[],"stateMutability":"nonpayable"},{"type":"function","name":"safeTransferFrom","inputs":[{"name":"from","type":"address","internalType":"address"},{"name":"to","type":"address","internalType":"address"},{"name":"tokenId","type":"uint256","internalType":"uint256"},{"name":"_data","type":"bytes","internalType":"bytes"}],"outputs":[],"stateMutability":"nonpayable"},{"type":"function","name":"setApprovalForAll","inputs":[{"name":"operator","type":"address","internalType":"address"},{"name":"approved","type":"bool","internalType":"bool"}],"outputs":[],"stateMutability":"nonpayable"},{"type":"function","name":"supportsInterface","inputs":[{"name":"interfaceId","type":"bytes4","internalType":"bytes4"}],"outputs":[{"name":"","type":"bool","internalType":"bool"}],"stateMutability":"view"},{"type":"function","name":"symbol","inputs":[],"outputs":[{"name":"","type":"string","internalType":"string"}],"stateMutability":"view"},{"type":"function","name":"tokenByIndex","inputs":[{"name":"index","type":"uint256","internalType":"uint256"}],"outputs":[{"name":"","type":"uint256","internalType":"uint256"}],"stateMutability":"view"},{"type":"function","name":"tokenOfOwnerByIndex","inputs":[{"name":"owner","type":"address","internalType":"address"},{"name":"index","type":"uint256","internalType":"uint256"}],"outputs":[{"name":"","type":"uint256","internalType":"uint256"}],"stateMutability":"view"},{"type":"function","name":"tokenURI","inputs":[{"name":"tokenId","type":"uint256","internalType":"uint256"}],"outputs":[{"name":"","type":"string","internalType":"string"}],"stateMutability":"view"},{"type":"function","name":"totalSupply","inputs":[],"outputs":[{"name":"","type":"uint256","internalType":"uint256"}],"stateMutability":"view"},{"type":"function","name":"transferFrom","inputs":[{"name":"from","type":"address","internalType":"address"},{"name":"to","type":"address","internalType":"address"},{"name":"tokenId","type":"uint256","internalType":"uint256"}],"outputs":[],"stateMutability":"nonpayable"},{"type":"function","name":"transferOwnership","inputs":[{"name":"newOwner","type":"address","internalType":"address"}],"outputs":[],"stateMutability":"nonpayable"},{"type":"event","name":"Approval","inputs":[{"name":"owner","type":"address","indexed":true,"internalType":"address"},{"name":"approved","type":"address","indexed":true,"internalType":"address"},{"name":"tokenId","type":"uint256","indexed":true,"internalType":"uint256"}],"anonymous":false},{"type":"event","name":"ApprovalForAll","inputs":[{"name":"owner","type":"address","indexed":true,"internalType":"address"},{"name":"operator","type":"address","indexed":true,"internalType":"address"},{"name":"approved","type":"bool","indexed":false,"internalType":"bool"}],"anonymous":false},{"type":"event","name":"OwnershipTransferred","inputs":[{"name":"previousOwner","type":"address","indexed":true,"internalType":"address"},{"name":"newOwner","type":"address","indexed":true,"internalType":"address"}],"anonymous":false},{"type":"event","name":"Transfer","inputs":[{"name":"from","type":"address","indexed":true,"internalType":"address"},{"name":"to","type":"address","indexed":true,"internalType":"address"},{"name":"tokenId","type":"uint256","indexed":true,"internalType":"uint256"}],"anonymous":false}],"bytecode":{"object":"0x608060405234801561001057600080fd5b50604051806040016040528060048152602001634d616d6160e01b815250604051806040016040528060038152602001624d4d4160e81b81525081600090816100599190610179565b5060016100668282610179565b50505061007f61007a61008460201b60201c565b610088565b610237565b3390565b600b80546001600160a01b038381166001600160a01b0319831681179093556040519116919082907f8be0079c531659141344cd1fd0a4f28419497f9722a3daafe3b4186f6b6457e090600090a35050565b634e487b7160e01b600052604160045260246000fd5b600181811c9082168061010457607f821691505b60208210810361012457634e487b7160e01b600052602260045260246000fd5b50919050565b601f82111561017457806000526020600020601f840160051c810160208510156101515750805b601f840160051c820191505b81811015610171576000815560010161015d565b50505b505050565b81516001600160401b03811115610192576101926100da565b6101a6816101a084546100f0565b8461012a565b6020601f8211600181146101da57600083156101c25750848201515b600019600385901b1c1916600184901b178455610171565b600084815260208120601f198516915b8281101561020a57878501518255602094850194600190920191016101ea565b50848210156102285786840151600019600387901b60f8161c191681555b50505050600190811b01905550565b611e5a806102466000396000f3fe608060405234801561001057600080fd5b506004361061012c5760003560e01c80636352211e116100ad578063a22cb46511610071578063a22cb4651461026a578063b88d4fde1461027d578063c87b56dd14610290578063e985e9c5146102a3578063f2fde38b146102df57600080fd5b80636352211e1461022357806370a0823114610236578063715018a6146102495780638da5cb5b1461025157806395d89b411461026257600080fd5b806318160ddd116100f457806318160ddd146101cf57806323b872dd146101d75780632f745c59146101ea57806342842e0e146101fd5780634f6ccce71461021057600080fd5b806301ffc9a71461013157806306fdde0314610159578063081812fc1461016e578063095ea7b314610199578063110bcd45146101ae575b600080fd5b61014461013f3660046117de565b6102f2565b60405190151581526020015b60405180910390f35b610161610303565b604051610150919061184b565b61018161017c36600461185e565b610395565b6040516001600160a01b039091168152602001610150565b6101ac6101a7366004611893565b610422565b005b6101c16101bc36600461194d565b610537565b604051908152602001610150565b6008546101c1565b6101ac6101e53660046119af565b6105fa565b6101c16101f8366004611893565b61062b565b6101ac61020b3660046119af565b6106c1565b6101c161021e36600461185e565b6106dc565b61018161023136600461185e565b61076f565b6101c16102443660046119ec565b6107e6565b6101ac61086d565b600b546001600160a01b0316610181565b6101616108d3565b6101ac610278366004611a07565b6108e2565b6101ac61028b366004611a43565b6108f1565b61016161029e36600461185e565b610929565b6101446102b1366004611abf565b6001600160a01b03918216600090815260056020908152604080832093909416825291909152205460ff1690565b6101ac6102ed3660046119ec565b610934565b60006102fd826109ff565b92915050565b60606000805461031290611af2565b80601f016020809104026020016040519081016040528092919081815260200182805461033e90611af2565b801561038b5780601f106103605761010080835404028352916020019161038b565b820191906000526020600020905b81548152906001019060200180831161036e57829003601f168201915b5050505050905090565b60006103a082610a24565b6104065760405162461bcd60e51b815260206004820152602c60248201527f4552433732313a20617070726f76656420717565727920666f72206e6f6e657860448201526b34b9ba32b73a103a37b5b2b760a11b60648201526084015b60405180910390fd5b506000908152600460205260409020546001600160a01b031690565b600061042d8261076f565b9050806001600160a01b0316836001600160a01b03160361049a5760405162461bcd60e51b815260206004820152602160248201527f4552433732313a20617070726f76616c20746f2063757272656e74206f776e656044820152603960f91b60648201526084016103fd565b336001600160a01b03821614806104b657506104b681336102b1565b6105285760405162461bcd60e51b815260206004820152603860248201527f4552433732313a20617070726f76652063616c6c6572206973206e6f74206f7760448201527f6e6572206e6f7220617070726f76656420666f7220616c6c000000000000000060648201526084016103fd565b6105328383610a41565b505050565b6001600160a01b0382166000908152600d602052604081205460ff16156105a05760405162461bcd60e51b815260206004820152601e60248201527f557365722068617320616c7265616479206d696e74656420616e204e4654000060448201526064016103fd565b6105ae600c80546001019055565b60006105b9600c5490565b90506105c58482610aaf565b6105cf8184610ac9565b6001600160a01b0384166000908152600d60205260409020805460ff19166001179055905092915050565b6106043382610b4d565b6106205760405162461bcd60e51b81526004016103fd90611b2c565b610532838383610c37565b6000610636836107e6565b82106106985760405162461bcd60e51b815260206004820152602b60248201527f455243373231456e756d657261626c653a206f776e657220696e646578206f7560448201526a74206f6620626f756e647360a81b60648201526084016103fd565b506001600160a01b03919091166000908152600660209081526040808320938352929052205490565b610532838383604051806020016040528060008152506108f1565b60006106e760085490565b821061074a5760405162461bcd60e51b815260206004820152602c60248201527f455243373231456e756d657261626c653a20676c6f62616c20696e646578206f60448201526b7574206f6620626f756e647360a01b60648201526084016103fd565b6008828154811061075d5761075d611b7d565b90600052602060002001549050919050565b6000818152600260205260408120546001600160a01b0316806102fd5760405162461bcd60e51b815260206004820152602960248201527f4552433732313a206f776e657220717565727920666f72206e6f6e657869737460448201526832b73a103a37b5b2b760b91b60648201526084016103fd565b60006001600160a01b0382166108515760405162461bcd60e51b815260206004820152602a60248201527f4552433732313a2062616c616e636520717565727920666f7220746865207a65604482015269726f206164647265737360b01b60648201526084016103fd565b506001600160a01b031660009081526003602052604090205490565b600b546001600160a01b031633146108c75760405162461bcd60e51b815260206004820181905260248201527f4f776e61626c653a2063616c6c6572206973206e6f7420746865206f776e657260448201526064016103fd565b6108d16000610dde565b565b60606001805461031290611af2565b6108ed338383610e30565b5050565b6108fb3383610b4d565b6109175760405162461bcd60e51b81526004016103fd90611b2c565b61092384848484610efe565b50505050565b60606102fd82610f31565b600b546001600160a01b0316331461098e5760405162461bcd60e51b815260206004820181905260248201527f4f776e61626c653a2063616c6c6572206973206e6f7420746865206f776e657260448201526064016103fd565b6001600160a01b0381166109f35760405162461bcd60e51b815260206004820152602660248201527f4f776e61626c653a206e6577206f776e657220697320746865207a65726f206160448201526564647265737360d01b60648201526084016103fd565b6109fc81610dde565b50565b60006001600160e01b0319821663780e9d6360e01b14806102fd57506102fd826110bc565b6000908152600260205260409020546001600160a01b0316151590565b600081815260046020526040902080546001600160a01b0319166001600160a01b0384169081179091558190610a768261076f565b6001600160a01b03167f8c5be1e5ebec7d5bd14f71427d1e84f3dd0314c0f7b2291e5b200ac8c7c3b92560405160405180910390a45050565b6108ed82826040518060200160405280600081525061110c565b610ad282610a24565b610b355760405162461bcd60e51b815260206004820152602e60248201527f45524337323155524953746f726167653a2055524920736574206f66206e6f6e60448201526d32bc34b9ba32b73a103a37b5b2b760911b60648201526084016103fd565b6000828152600a602052604090206105328282611be1565b6000610b5882610a24565b610bb95760405162461bcd60e51b815260206004820152602c60248201527f4552433732313a206f70657261746f7220717565727920666f72206e6f6e657860448201526b34b9ba32b73a103a37b5b2b760a11b60648201526084016103fd565b6000610bc48361076f565b9050806001600160a01b0316846001600160a01b03161480610bff5750836001600160a01b0316610bf484610395565b6001600160a01b0316145b80610c2f57506001600160a01b0380821660009081526005602090815260408083209388168352929052205460ff165b949350505050565b826001600160a01b0316610c4a8261076f565b6001600160a01b031614610cae5760405162461bcd60e51b815260206004820152602560248201527f4552433732313a207472616e736665722066726f6d20696e636f72726563742060448201526437bbb732b960d91b60648201526084016103fd565b6001600160a01b038216610d105760405162461bcd60e51b8152602060048201526024808201527f4552433732313a207472616e7366657220746f20746865207a65726f206164646044820152637265737360e01b60648201526084016103fd565b610d1b83838361113f565b610d26600082610a41565b6001600160a01b0383166000908152600360205260408120805460019290610d4f908490611cb6565b90915550506001600160a01b0382166000908152600360205260408120805460019290610d7d908490611cc9565b909155505060008181526002602052604080822080546001600160a01b0319166001600160a01b0386811691821790925591518493918716917fddf252ad1be2c89b69c2b068fc378daa952ba7f163c4a11628f55a4df523b3ef91a4505050565b600b80546001600160a01b038381166001600160a01b0319831681179093556040519116919082907f8be0079c531659141344cd1fd0a4f28419497f9722a3daafe3b4186f6b6457e090600090a35050565b816001600160a01b0316836001600160a01b031603610e915760405162461bcd60e51b815260206004820152601960248201527f4552433732313a20617070726f766520746f2063616c6c65720000000000000060448201526064016103fd565b6001600160a01b03838116600081815260056020908152604080832094871680845294825291829020805460ff191686151590811790915591519182527f17307eab39ab6107e8899845ad3d59bd9653f200f220920489ca2b5937696c31910160405180910390a3505050565b610f09848484610c37565b610f158484848461114a565b6109235760405162461bcd60e51b81526004016103fd90611cdc565b6060610f3c82610a24565b610fa25760405162461bcd60e51b815260206004820152603160248201527f45524337323155524953746f726167653a2055524920717565727920666f72206044820152703737b732bc34b9ba32b73a103a37b5b2b760791b60648201526084016103fd565b6000828152600a602052604081208054610fbb90611af2565b80601f0160208091040260200160405190810160405280929190818152602001828054610fe790611af2565b80156110345780601f1061100957610100808354040283529160200191611034565b820191906000526020600020905b81548152906001019060200180831161101757829003601f168201915b50505050509050600061106f60408051808201909152601581527468747470733a2f2f697066732e696f2f697066732f60581b602082015290565b90508051600003611081575092915050565b8151156110b357808260405160200161109b929190611d2e565b60405160208183030381529060405292505050919050565b610c2f8461124b565b60006001600160e01b031982166380ac58cd60e01b14806110ed57506001600160e01b03198216635b5e139f60e01b145b806102fd57506301ffc9a760e01b6001600160e01b03198316146102fd565b6111168383611340565b611123600084848461114a565b6105325760405162461bcd60e51b81526004016103fd90611cdc565b61053283838361147f565b60006001600160a01b0384163b1561124057604051630a85bd0160e11b81526001600160a01b0385169063150b7a029061118e903390899088908890600401611d5d565b6020604051808303816000875af19250505080156111c9575060408051601f3d908101601f191682019092526111c691810190611d9a565b60015b611226573d8080156111f7576040519150601f19603f3d011682016040523d82523d6000602084013e6111fc565b606091505b50805160000361121e5760405162461bcd60e51b81526004016103fd90611cdc565b805181602001fd5b6001600160e01b031916630a85bd0160e11b149050610c2f565b506001949350505050565b606061125682610a24565b6112ba5760405162461bcd60e51b815260206004820152602f60248201527f4552433732314d657461646174613a2055524920717565727920666f72206e6f60448201526e3732bc34b9ba32b73a103a37b5b2b760891b60648201526084016103fd565b60006112ee60408051808201909152601581527468747470733a2f2f697066732e696f2f697066732f60581b602082015290565b9050600081511161130e5760405180602001604052806000815250611339565b8061131884611537565b604051602001611329929190611d2e565b6040516020818303038152906040525b9392505050565b6001600160a01b0382166113965760405162461bcd60e51b815260206004820181905260248201527f4552433732313a206d696e7420746f20746865207a65726f206164647265737360448201526064016103fd565b61139f81610a24565b156113ec5760405162461bcd60e51b815260206004820152601c60248201527f4552433732313a20746f6b656e20616c7265616479206d696e7465640000000060448201526064016103fd565b6113f86000838361113f565b6001600160a01b0382166000908152600360205260408120805460019290611421908490611cc9565b909155505060008181526002602052604080822080546001600160a01b0319166001600160a01b03861690811790915590518392907fddf252ad1be2c89b69c2b068fc378daa952ba7f163c4a11628f55a4df523b3ef908290a45050565b6001600160a01b0383166114da576114d581600880546000838152600960205260408120829055600182018355919091527ff3f7a9fe364faab93b216da50a3214154f22a0a2b415b23a84c8169e8b636ee30155565b6114fd565b816001600160a01b0316836001600160a01b0316146114fd576114fd8382611638565b6001600160a01b03821661151457610532816116d5565b826001600160a01b0316826001600160a01b031614610532576105328282611784565b60608160000361155e5750506040805180820190915260018152600360fc1b602082015290565b8160005b8115611588578061157281611db7565b91506115819050600a83611de6565b9150611562565b60008167ffffffffffffffff8111156115a3576115a36118bd565b6040519080825280601f01601f1916602001820160405280156115cd576020820181803683370190505b5090505b8415610c2f576115e2600183611cb6565b91506115ef600a86611dfa565b6115fa906030611cc9565b60f81b81838151811061160f5761160f611b7d565b60200101906001600160f81b031916908160001a905350611631600a86611de6565b94506115d1565b60006001611645846107e6565b61164f9190611cb6565b6000838152600760205260409020549091508082146116a2576001600160a01b03841660009081526006602090815260408083208584528252808320548484528184208190558352600790915290208190555b5060009182526007602090815260408084208490556001600160a01b039094168352600681528383209183525290812055565b6008546000906116e790600190611cb6565b6000838152600960205260408120546008805493945090928490811061170f5761170f611b7d565b90600052602060002001549050806008838154811061173057611730611b7d565b600091825260208083209091019290925582815260099091526040808220849055858252812055600880548061176857611768611e0e565b6001900381819060005260206000200160009055905550505050565b600061178f836107e6565b6001600160a01b039093166000908152600660209081526040808320868452825280832085905593825260079052919091209190915550565b6001600160e01b0319811681146109fc57600080fd5b6000602082840312156117f057600080fd5b8135611339816117c8565b60005b838110156118165781810151838201526020016117fe565b50506000910152565b600081518084526118378160208601602086016117fb565b601f01601f19169290920160200192915050565b602081526000611339602083018461181f565b60006020828403121561187057600080fd5b5035919050565b80356001600160a01b038116811461188e57600080fd5b919050565b600080604083850312156118a657600080fd5b6118af83611877565b946020939093013593505050565b634e487b7160e01b600052604160045260246000fd5b60008067ffffffffffffffff8411156118ee576118ee6118bd565b50604051601f19601f85018116603f0116810181811067ffffffffffffffff8211171561191d5761191d6118bd565b60405283815290508082840185101561193557600080fd5b83836020830137600060208583010152509392505050565b6000806040838503121561196057600080fd5b61196983611877565b9150602083013567ffffffffffffffff81111561198557600080fd5b8301601f8101851361199657600080fd5b6119a5858235602084016118d3565b9150509250929050565b6000806000606084860312156119c457600080fd5b6119cd84611877565b92506119db60208501611877565b929592945050506040919091013590565b6000602082840312156119fe57600080fd5b61133982611877565b60008060408385031215611a1a57600080fd5b611a2383611877565b915060208301358015158114611a3857600080fd5b809150509250929050565b60008060008060808587031215611a5957600080fd5b611a6285611877565b9350611a7060208601611877565b925060408501359150606085013567ffffffffffffffff811115611a9357600080fd5b8501601f81018713611aa457600080fd5b611ab3878235602084016118d3565b91505092959194509250565b60008060408385031215611ad257600080fd5b611adb83611877565b9150611ae960208401611877565b90509250929050565b600181811c90821680611b0657607f821691505b602082108103611b2657634e487b7160e01b600052602260045260246000fd5b50919050565b60208082526031908201527f4552433732313a207472616e736665722063616c6c6572206973206e6f74206f6040820152701ddb995c881b9bdc88185c1c1c9bdd9959607a1b606082015260800190565b634e487b7160e01b600052603260045260246000fd5b601f82111561053257806000526020600020601f840160051c81016020851015611bba5750805b601f840160051c820191505b81811015611bda5760008155600101611bc6565b5050505050565b815167ffffffffffffffff811115611bfb57611bfb6118bd565b611c0f81611c098454611af2565b84611b93565b6020601f821160018114611c435760008315611c2b5750848201515b600019600385901b1c1916600184901b178455611bda565b600084815260208120601f198516915b82811015611c735787850151825560209485019460019092019101611c53565b5084821015611c915786840151600019600387901b60f8161c191681555b50505050600190811b01905550565b634e487b7160e01b600052601160045260246000fd5b818103818111156102fd576102fd611ca0565b808201808211156102fd576102fd611ca0565b60208082526032908201527f4552433732313a207472616e7366657220746f206e6f6e20455243373231526560408201527131b2b4bb32b91034b6b83632b6b2b73a32b960711b606082015260800190565b60008351611d408184602088016117fb565b835190830190611d548183602088016117fb565b01949350505050565b6001600160a01b0385811682528416602082015260408101839052608060608201819052600090611d909083018461181f565b9695505050505050565b600060208284031215611dac57600080fd5b8151611339816117c8565b600060018201611dc957611dc9611ca0565b5060010190565b634e487b7160e01b600052601260045260246000fd5b600082611df557611df5611dd0565b500490565b600082611e0957611e09611dd0565b500690565b634e487b7160e01b600052603160045260246000fdfea26469706673582212206c6d6b89e9876b640b47c273596270471e2d59e9b61a2ee43001526f5c0d1e7164736f6c634300081a0033","linkReferences":{}},"methodIdentifiers":{"approve(address,uint256)":"095ea7b3","balanceOf(address)":"70a08231","getApproved(uint256)":"081812fc","isApprovedForAll(address,address)":"e985e9c5","mintItem(address,string)":"110bcd45","name()":"06fdde03","owner()":"8da5cb5b","ownerOf(uint256)":"6352211e","renounceOwnership()":"715018a6","safeTransferFrom(address,address,uint256)":"42842e0e","safeTransferFrom(address,address,uint256,bytes)":"b88d4fde","setApprovalForAll(address,bool)":"a22cb465","supportsInterface(bytes4)":"01ffc9a7","symbol()":"95d89b41","tokenByIndex(uint256)":"4f6ccce7","tokenOfOwnerByIndex(address,uint256)":"2f745c59","tokenURI(uint256)":"c87b56dd","totalSupply()":"18160ddd","transferFrom(address,address,uint256)":"23b872dd","transferOwnership(address)":"f2fde38b"},"id":43}