{"abi":[{"type":"function","name":"add","inputs":[{"name":"a","type":"uint256","internalType":"uint256"},{"name":"b","type":"uint256","internalType":"uint256"}],"outputs":[],"stateMutability":"nonpayable"},{"type":"function","name":"div","inputs":[{"name":"a","type":"uint256","internalType":"uint256"},{"name":"b","type":"uint256","internalType":"uint256"}],"outputs":[],"stateMutability":"nonpayable"},{"type":"function","name":"mod","inputs":[{"name":"a","type":"uint256","internalType":"uint256"},{"name":"b","type":"uint256","internalType":"uint256"}],"outputs":[],"stateMutability":"nonpayable"},{"type":"function","name":"mul","inputs":[{"name":"a","type":"uint256","internalType":"uint256"},{"name":"b","type":"uint256","internalType":"uint256"}],"outputs":[],"stateMutability":"nonpayable"},{"type":"function","name":"result","inputs":[],"outputs":[{"name":"","type":"uint256","internalType":"uint256"}],"stateMutability":"view"},{"type":"function","name":"sub","inputs":[{"name":"a","type":"uint256","internalType":"uint256"},{"name":"b","type":"uint256","internalType":"uint256"}],"outputs":[],"stateMutability":"nonpayable"}],"bytecode":{"object":"0x6080604052348015600f57600080fd5b506104138061001f6000396000f3fe608060405234801561001057600080fd5b50600436106100625760003560e01c80636537214714610067578063771602f714610082578063a391c15b14610097578063b67d77c5146100aa578063c8a4ac9c146100bd578063f43f523a146100d0575b600080fd5b61007060005481565b60405190815260200160405180910390f35b61009561009036600461032a565b6100e3565b005b6100956100a536600461032a565b6100f4565b6100956100b836600461032a565b6100fe565b6100956100cb36600461032a565b610108565b6100956100de36600461032a565b610112565b6100ed828261011c565b6000555050565b6100ed8282610189565b6100ed82826101ee565b6100ed828261024c565b6100ed82826102ce565b6000806101298385610362565b9050838110156101805760405162461bcd60e51b815260206004820152601b60248201527f536166654d6174683a206164646974696f6e206f766572666c6f77000000000060448201526064015b60405180910390fd5b90505b92915050565b60008082116101da5760405162461bcd60e51b815260206004820152601a60248201527f536166654d6174683a206469766973696f6e206279207a65726f0000000000006044820152606401610177565b60006101e6838561038b565b949350505050565b6000828211156102405760405162461bcd60e51b815260206004820152601e60248201527f536166654d6174683a207375627472616374696f6e206f766572666c6f7700006044820152606401610177565b60006101e6838561039f565b60008260000361025e57506000610183565b600061026a83856103b2565b905082610277858361038b565b146101805760405162461bcd60e51b815260206004820152602160248201527f536166654d6174683a206d756c7469706c69636174696f6e206f766572666c6f6044820152607760f81b6064820152608401610177565b6000816000036103205760405162461bcd60e51b815260206004820152601860248201527f536166654d6174683a206d6f64756c6f206279207a65726f00000000000000006044820152606401610177565b61018082846103c9565b6000806040838503121561033d57600080fd5b50508035926020909101359150565b634e487b7160e01b600052601160045260246000fd5b808201808211156101835761018361034c565b634e487b7160e01b600052601260045260246000fd5b60008261039a5761039a610375565b500490565b818103818111156101835761018361034c565b80820281158282048414176101835761018361034c565b6000826103d8576103d8610375565b50069056fea2646970667358221220c797270a68f73efaab5b8d45b58c8c99c934b7058b53ab279145b7009742640764736f6c63430008190033","linkReferences":{}},"methodIdentifiers":{"add(uint256,uint256)":"771602f7","div(uint256,uint256)":"a391c15b","mod(uint256,uint256)":"f43f523a","mul(uint256,uint256)":"c8a4ac9c","result()":"65372147","sub(uint256,uint256)":"b67d77c5"},"id":30}