{"abi":[{"type":"constructor","inputs":[{"name":"_mamaToken","type":"address","internalType":"address"}],"stateMutability":"nonpayable"},{"type":"fallback","stateMutability":"payable"},{"type":"receive","stateMutability":"payable"},{"type":"function","name":"approveProduct","inputs":[{"name":"vendorMarketplace","type":"address","internalType":"address"},{"name":"id","type":"uint256","internalType":"uint256"}],"outputs":[],"stateMutability":"nonpayable"},{"type":"function","name":"buyProduct","inputs":[{"name":"vendorMarketplace","type":"address","internalType":"address"},{"name":"amount","type":"uint256","internalType":"uint256"},{"name":"bookID","type":"uint256","internalType":"uint256"}],"outputs":[{"name":"","type":"bool","internalType":"bool"}],"stateMutability":"nonpayable"},{"type":"function","name":"checkBalance","inputs":[],"outputs":[{"name":"","type":"uint256","internalType":"uint256"}],"stateMutability":"view"},{"type":"function","name":"checkEcommerceLength","inputs":[],"outputs":[{"name":"","type":"uint256","internalType":"uint256"}],"stateMutability":"view"},{"type":"function","name":"createMamashay","inputs":[],"outputs":[{"name":"","type":"address","internalType":"address"}],"stateMutability":"nonpayable"},{"type":"function","name":"deleteProduct","inputs":[{"name":"vendorMarketplace","type":"address","internalType":"address"},{"name":"id","type":"uint256","internalType":"uint256"}],"outputs":[],"stateMutability":"nonpayable"},{"type":"function","name":"ecommerceContracts","inputs":[{"name":"","type":"uint256","internalType":"uint256"}],"outputs":[{"name":"","type":"address","internalType":"contract Ecommerce"}],"stateMutability":"view"},{"type":"function","name":"mamaToken","inputs":[],"outputs":[{"name":"","type":"address","internalType":"contract IMamaToken"}],"stateMutability":"view"},{"type":"function","name":"nftNames","inputs":[{"name":"","type":"address","internalType":"address"}],"outputs":[{"name":"","type":"string","internalType":"string"}],"stateMutability":"view"},{"type":"function","name":"owner","inputs":[],"outputs":[{"name":"","type":"address","internalType":"address payable"}],"stateMutability":"view"},{"type":"function","name":"publishProduct","inputs":[{"name":"vendorMarketplace","type":"address","internalType":"address"},{"name":"id","type":"uint256","internalType":"uint256"},{"name":"name","type":"string","internalType":"string"},{"name":"vendorName","type":"string","internalType":"string"},{"name":"price","type":"uint256","internalType":"uint256"},{"name":"category","type":"string","internalType":"string"}],"outputs":[],"stateMutability":"nonpayable"},{"type":"function","name":"withdraw","inputs":[],"outputs":[],"stateMutability":"nonpayable"},{"type":"event","name":"EcommerceCreated","inputs":[{"name":"marketplaceAddress","type":"address","indexed":true,"internalType":"address"},{"name":"nftName","type":"string","indexed":false,"internalType":"string"},{"name":"owner","type":"address","indexed":true,"internalType":"address"}],"anonymous":false}],"bytecode":{"object":"0x6080604052348015600f57600080fd5b506040516125ba3803806125ba833981016040819052602c91605e565b60008054336001600160a01b031991821617909155600280549091166001600160a01b0392909216919091179055608c565b600060208284031215606f57600080fd5b81516001600160a01b0381168114608557600080fd5b9392505050565b61251f8061009b6000396000f3fe6080604052600436106100a55760003560e01c8063c71daccb11610061578063c71daccb14610186578063d0a664da146101a9578063dc78d93b146101c9578063e6737043146101f9578063fe0b2b3714610219578063fff82c331461022e57005b806305fec8a3146100ae57806323d0265a146100e45780633ccfd60b146101045780638da5cb5b1461011957806393771ea314610151578063a5a4b5601461017157005b366100ac57005b005b3480156100ba57600080fd5b506100ce6100c936600461092b565b61024e565b6040516100db919061099d565b60405180910390f35b3480156100f057600080fd5b506100ac6100ff3660046109b0565b6102e8565b34801561011057600080fd5b506100ac610395565b34801561012557600080fd5b50600054610139906001600160a01b031681565b6040516001600160a01b0390911681526020016100db565b34801561015d57600080fd5b506100ac61016c366004610a9f565b6104c5565b34801561017d57600080fd5b50610139610578565b34801561019257600080fd5b5061019b610733565b6040519081526020016100db565b3480156101b557600080fd5b506100ac6101c43660046109b0565b6107a5565b3480156101d557600080fd5b506101e96101e4366004610b56565b610817565b60405190151581526020016100db565b34801561020557600080fd5b50600254610139906001600160a01b031681565b34801561022557600080fd5b5060015461019b565b34801561023a57600080fd5b50610139610249366004610b89565b6108d8565b6003602052600090815260409020805461026790610ba2565b80601f016020809104026020016040519081016040528092919081815260200182805461029390610ba2565b80156102e05780601f106102b5576101008083540402835291602001916102e0565b820191906000526020600020905b8154815290600101906020018083116102c357829003601f168201915b505050505081565b6001600160a01b0382166103175760405162461bcd60e51b815260040161030e90610bdc565b60405180910390fd5b6001546103365760405162461bcd60e51b815260040161030e90610c13565b60405163178d0e6560e31b8152600481018290526001600160a01b0383169063bc687328906024015b600060405180830381600087803b15801561037957600080fd5b505af115801561038d573d6000803e3d6000fd5b505050505050565b6002546040516370a0823160e01b81523060048201526000916001600160a01b0316906370a0823190602401602060405180830381865afa1580156103de573d6000803e3d6000fd5b505050506040513d601f19601f820116820180604052508101906104029190610c4a565b90506000811161044c5760405162461bcd60e51b81526020600482015260156024820152744e6f20746f6b656e7320746f20776974686472617760581b604482015260640161030e565b60025460405163a9059cbb60e01b8152336004820152602481018390526001600160a01b039091169063a9059cbb906044016020604051808303816000875af115801561049d573d6000803e3d6000fd5b505050506040513d601f19601f820116820180604052508101906104c19190610c63565b5050565b6001600160a01b0386166104eb5760405162461bcd60e51b815260040161030e90610bdc565b60015461050a5760405162461bcd60e51b815260040161030e90610c13565b60405163494c654160e01b81526001600160a01b0387169063494c65419061053e9088908890889088908890600401610c85565b600060405180830381600087803b15801561055857600080fd5b505af115801561056c573d6000803e3d6000fd5b50505050505050505050565b60025460405160009182916001600160a01b039091169061059890610902565b6001600160a01b039091168152602001604051809103906000f0801580156105c4573d6000803e3d6000fd5b5060018054808201825560009182527fb10e2d527612073b26eecdfd717e6a320cf44b4afac2b0732d9fcbe2b7fa0cf60180546001600160a01b0319166001600160a01b038416908117909155604080516308e3298760e41b8152905193945091929091638e32987091600480830192869291908290030181865afa158015610651573d6000803e3d6000fd5b505050506040513d6000823e601f3d908101601f191682016040526106799190810190610cd6565b905060008151116106bf5760405162461bcd60e51b815260206004820152601060248201526f496e76616c6964204e4654206e616d6560801b604482015260640161030e565b6001600160a01b03821660009081526003602052604090206106e18282610d9c565b50336001600160a01b0316826001600160a01b03167f60daf7fc9daafb602a42cc2fd56ee9968ec5c187f0ab9319254d216f2582771583604051610725919061099d565b60405180910390a350919050565b6002546040516370a0823160e01b81523360048201526000916001600160a01b0316906370a0823190602401602060405180830381865afa15801561077c573d6000803e3d6000fd5b505050506040513d601f19601f820116820180604052508101906107a09190610c4a565b905090565b6001600160a01b0382166107cb5760405162461bcd60e51b815260040161030e90610bdc565b6001546107ea5760405162461bcd60e51b815260040161030e90610c13565b604051630708771f60e11b8152600481018290526001600160a01b03831690630e10ee3e9060240161035f565b60006001600160a01b03841661083f5760405162461bcd60e51b815260040161030e90610bdc565b60015461085e5760405162461bcd60e51b815260040161030e90610c13565b6040516329db143360e11b815260048101849052602481018390526001600160a01b038516906353b62866906044016020604051808303816000875af11580156108ac573d6000803e3d6000fd5b505050506040513d601f19601f820116820180604052508101906108d09190610c63565b949350505050565b600181815481106108e857600080fd5b6000918252602090912001546001600160a01b0316905081565b61168e80610e5c83390190565b80356001600160a01b038116811461092657600080fd5b919050565b60006020828403121561093d57600080fd5b6109468261090f565b9392505050565b60005b83811015610968578181015183820152602001610950565b50506000910152565b6000815180845261098981602086016020860161094d565b601f01601f19169290920160200192915050565b6020815260006109466020830184610971565b600080604083850312156109c357600080fd5b6109cc8361090f565b946020939093013593505050565b634e487b7160e01b600052604160045260246000fd5b604051601f8201601f1916810167ffffffffffffffff81118282101715610a1957610a196109da565b604052919050565b600067ffffffffffffffff821115610a3b57610a3b6109da565b50601f01601f191660200190565b600082601f830112610a5a57600080fd5b8135610a6d610a6882610a21565b6109f0565b818152846020838601011115610a8257600080fd5b816020850160208301376000918101602001919091529392505050565b60008060008060008060c08789031215610ab857600080fd5b610ac18761090f565b955060208701359450604087013567ffffffffffffffff811115610ae457600080fd5b610af089828a01610a49565b945050606087013567ffffffffffffffff811115610b0d57600080fd5b610b1989828a01610a49565b9350506080870135915060a087013567ffffffffffffffff811115610b3d57600080fd5b610b4989828a01610a49565b9150509295509295509295565b600080600060608486031215610b6b57600080fd5b610b748461090f565b95602085013595506040909401359392505050565b600060208284031215610b9b57600080fd5b5035919050565b600181811c90821680610bb657607f821691505b602082108103610bd657634e487b7160e01b600052602260045260246000fd5b50919050565b6020808252601b908201527f496e76616c6964206d61726b6574706c61636520616464726573730000000000604082015260600190565b6020808252601e908201527f4e6f2045636f6d6d6572636520636f6e74726163747320637265617465640000604082015260600190565b600060208284031215610c5c57600080fd5b5051919050565b600060208284031215610c7557600080fd5b8151801515811461094657600080fd5b85815260a060208201526000610c9e60a0830187610971565b8281036040840152610cb08187610971565b90508460608401528281036080840152610cca8185610971565b98975050505050505050565b600060208284031215610ce857600080fd5b815167ffffffffffffffff811115610cff57600080fd5b8201601f81018413610d1057600080fd5b8051610d1e610a6882610a21565b818152856020838501011115610d3357600080fd5b610d4482602083016020860161094d565b95945050505050565b601f821115610d9757806000526020600020601f840160051c81016020851015610d745750805b601f840160051c820191505b81811015610d945760008155600101610d80565b50505b505050565b815167ffffffffffffffff811115610db657610db66109da565b610dca81610dc48454610ba2565b84610d4d565b6020601f821160018114610dfe5760008315610de65750848201515b600019600385901b1c1916600184901b178455610d94565b600084815260208120601f198516915b82811015610e2e5787850151825560209485019460019092019101610e0e565b5084821015610e4c5786840151600019600387901b60f8161c191681555b50505050600190811b0190555056fe6080604052348015600f57600080fd5b5060405161168e38038061168e833981016040819052602c916059565b600080546001600160a01b039092166001600160a01b031992831617905560018054909116331790556087565b600060208284031215606a57600080fd5b81516001600160a01b0381168114608057600080fd5b9392505050565b6115f8806100966000396000f3fe6080604052600436106100a75760003560e01c80637acc0b20116100645780637acc0b201461015257806382391bd6146101845780638e329870146101bc578063904c607a146101de578063b4a99a4e146101fe578063bc6873281461021e57600080fd5b80630e10ee3e146100ac5780632c5da21f146100ce57806344e73b78146100f2578063494c65411461010757806353b628661461011a57806357ea89b61461013d575b600080fd5b3480156100b857600080fd5b506100cc6100c7366004610fc3565b61023e565b005b3480156100da57600080fd5b506002545b6040519081526020015b60405180910390f35b3480156100fe57600080fd5b506100df61046b565b6100cc6101153660046110a1565b6104dd565b61012d610128366004611149565b61062b565b60405190151581526020016100e9565b34801561014957600080fd5b506100cc610960565b34801561015e57600080fd5b5061017261016d366004610fc3565b610beb565b6040516100e9969594939291906111d1565b34801561019057600080fd5b506000546101a4906001600160a01b031681565b6040516001600160a01b0390911681526020016100e9565b3480156101c857600080fd5b506101d1610dce565b6040516100e99190611248565b3480156101ea57600080fd5b506101726101f9366004610fc3565b610e3f565b34801561020a57600080fd5b506001546101a4906001600160a01b031681565b34801561022a57600080fd5b506100cc610239366004610fc3565b610e4f565b6001546001600160a01b031633146102715760405162461bcd60e51b815260040161026890611262565b60405180910390fd5b60025481106102ba5760405162461bcd60e51b8152602060048201526015602482015274141c9bd91d58dd081251081a5cc81a5b9d985b1a59605a1b6044820152606401610268565b600280546102ca906001906112a3565b815481106102da576102da6112c4565b9060005260206000209060060201600282815481106102fb576102fb6112c4565b60009182526020909120825460069092020190815560018082019061032290840182611363565b5060028201548160020155600382018160030190816103419190611363565b5060048181019061035490840182611363565b50600582810154908201805460ff9092169160ff1916600183600281111561037e5761037e6111bb565b0217905550905050600280548061039757610397611443565b600082815260208120600660001990930192830201818155906103bd6001830182610f6d565b60028201600090556003820160006103d59190610f6d565b6103e3600483016000610f6d565b50600501805460ff1916905590556002805482908110610405576104056112c4565b9060005260206000209060060201600001546002828154811061042a5761042a6112c4565b60009182526020822060026006909202010154604051909133917f960da9bd1ffa169a1bf70b54a13514c057da1e53cd9212225fd5a48a9de618359190a450565b600080546040516370a0823160e01b81523360048201526001600160a01b03909116906370a0823190602401602060405180830381865afa1580156104b4573d6000803e3d6000fd5b505050506040513d601f19601f820116820180604052508101906104d89190611459565b905090565b60006040518060c001604052808781526020018681526020018481526020018581526020018381526020016001600281111561051b5761051b6111bb565b905260028054600181018255600091909152815160069091027f405787fa12a823e0f2b7631cc41b3ba8828b3321ca811111fa75cd3aa3bb5ace8101918255602083015192935083927f405787fa12a823e0f2b7631cc41b3ba8828b3321ca811111fa75cd3aa3bb5acf909101906105939082611472565b5060408201516002820155606082015160038201906105b29082611472565b50608082015160048201906105c79082611472565b5060a082015160058201805460ff191660018360028111156105eb576105eb6111bb565b0217905550508151604051909150849033907f9d6b424de62c5ed16b663da8d9ab5769f7f291ab4780f772c1f5e0f9cc829e9890600090a4505050505050565b600060028281548110610640576106406112c4565b9060005260206000209060060201600201548310156106965760405162461bcd60e51b8152602060048201526012602482015271496e73756666696369656e742066756e647360701b6044820152606401610268565b6000600283815481106106ab576106ab6112c4565b600091825260209091206005600690920201015460ff1660028111156106d3576106d36111bb565b146107205760405162461bcd60e51b815260206004820152601760248201527f50726f64756374206973206e6f7420617070726f7665640000000000000000006044820152606401610268565b60005460405163095ea7b360e01b8152306004820152602481018590526001600160a01b039091169063095ea7b3906044016020604051808303816000875af1158015610771573d6000803e3d6000fd5b505050506040513d601f19601f820116820180604052508101906107959190611529565b506000546040516323b872dd60e01b8152336004820152306024820152604481018590526001600160a01b03909116906323b872dd906064016020604051808303816000875af11580156107ed573d6000803e3d6000fd5b505050506040513d601f19601f820116820180604052508101906108119190611529565b50600360028381548110610827576108276112c4565b60009182526020808320845460018181018755958552919093206006928302909301805491909202909201918255918181019061086690840182611363565b5060028201548160020155600382018160030190816108859190611363565b5060048181019061089890840182611363565b50600582810154908201805460ff9092169160ff191660018360028111156108c2576108c26111bb565b02179055505050600282815481106108dc576108dc6112c4565b90600052602060002090600602016002015483336001600160a01b03167f93fb8c6cb868a3b2a4aabdb67202cfc2f3527677db302009cc44e1e00b4ea0a76002868154811061092d5761092d6112c4565b90600052602060002090600602016000015460405161094e91815260200190565b60405180910390a45060015b92915050565b6001546001600160a01b0316331461098a5760405162461bcd60e51b815260040161026890611262565b6000546040516370a0823160e01b81523060048201526001600160a01b039091169063a9059cbb90339083906370a0823190602401602060405180830381865afa1580156109dc573d6000803e3d6000fd5b505050506040513d601f19601f82011682018060405250810190610a009190611459565b6040516001600160e01b031960e085901b1681526001600160a01b03909216600483015260248201526044016020604051808303816000875af1158015610a4b573d6000803e3d6000fd5b505050506040513d601f19601f82011682018060405250810190610a6f9190611529565b506000546040516370a0823160e01b81523060048201526001600160a01b03909116906370a0823190602401602060405180830381865afa158015610ab8573d6000803e3d6000fd5b505050506040513d601f19601f82011682018060405250810190610adc9190611459565b6000546040516370a0823160e01b81523060048201526001600160a01b03909116906370a0823190602401602060405180830381865afa158015610b24573d6000803e3d6000fd5b505050506040513d601f19601f82011682018060405250810190610b489190611459565b6000546040516370a0823160e01b815230600482015233917fb37bfe34d27c30ae70e4922b7c9e7d7235af1f8688613fce3c62d1cb4582ae12916001600160a01b03909116906370a0823190602401602060405180830381865afa158015610bb4573d6000803e3d6000fd5b505050506040513d601f19601f82011682018060405250810190610bd89190611459565b60405190815260200160405180910390a4565b60028181548110610bfb57600080fd5b60009182526020909120600690910201805460018201805491935090610c20906112da565b80601f0160208091040260200160405190810160405280929190818152602001828054610c4c906112da565b8015610c995780601f10610c6e57610100808354040283529160200191610c99565b820191906000526020600020905b815481529060010190602001808311610c7c57829003601f168201915b505050505090806002015490806003018054610cb4906112da565b80601f0160208091040260200160405190810160405280929190818152602001828054610ce0906112da565b8015610d2d5780601f10610d0257610100808354040283529160200191610d2d565b820191906000526020600020905b815481529060010190602001808311610d1057829003601f168201915b505050505090806004018054610d42906112da565b80601f0160208091040260200160405190810160405280929190818152602001828054610d6e906112da565b8015610dbb5780601f10610d9057610100808354040283529160200191610dbb565b820191906000526020600020905b815481529060010190602001808311610d9e57829003601f168201915b5050506005909301549192505060ff1686565b60008054604080516306fdde0360e01b815290516060936001600160a01b03909316926306fdde0392600480820193918290030181865afa158015610e17573d6000803e3d6000fd5b505050506040513d6000823e601f3d908101601f191682016040526104d8919081019061154b565b60038181548110610bfb57600080fd5b6001546001600160a01b03163314610e795760405162461bcd60e51b815260040161026890611262565b600060028281548110610e8e57610e8e6112c4565b6000918252602090912060069091020190506001600582015460ff166002811115610ebb57610ebb6111bb565b1480610edf57506002600582015460ff166002811115610edd57610edd6111bb565b145b610f2b5760405162461bcd60e51b815260206004820152601b60248201527f50726f6475637420697320616c726561647920617070726f76656400000000006044820152606401610268565b60058101805460ff191690558054600282015460405133907fd6545d8dc7a44e994ba294736647119df5d3761ac27b5a1d2055993f0618404890600090a45050565b508054610f79906112da565b6000825580601f10610f89575050565b601f016020900490600052602060002090810190610fa79190610faa565b50565b5b80821115610fbf5760008155600101610fab565b5090565b600060208284031215610fd557600080fd5b5035919050565b634e487b7160e01b600052604160045260246000fd5b604051601f8201601f1916810167ffffffffffffffff8111828210171561101b5761101b610fdc565b604052919050565b600067ffffffffffffffff82111561103d5761103d610fdc565b50601f01601f191660200190565b600082601f83011261105c57600080fd5b813561106f61106a82611023565b610ff2565b81815284602083860101111561108457600080fd5b816020850160208301376000918101602001919091529392505050565b600080600080600060a086880312156110b957600080fd5b85359450602086013567ffffffffffffffff8111156110d757600080fd5b6110e38882890161104b565b945050604086013567ffffffffffffffff81111561110057600080fd5b61110c8882890161104b565b93505060608601359150608086013567ffffffffffffffff81111561113057600080fd5b61113c8882890161104b565b9150509295509295909350565b6000806040838503121561115c57600080fd5b50508035926020909101359150565b60005b8381101561118657818101518382015260200161116e565b50506000910152565b600081518084526111a781602086016020860161116b565b601f01601f19169290920160200192915050565b634e487b7160e01b600052602160045260246000fd5b86815260c0602082015260006111ea60c083018861118f565b8660408401528281036060840152611202818761118f565b90508281036080840152611216818661118f565b9150506003831061123757634e487b7160e01b600052602160045260246000fd5b8260a0830152979650505050505050565b60208152600061125b602083018461118f565b9392505050565b60208082526021908201527f4f6e6c792041646d696e2063616e2063616c6c20746869732066756e6374696f6040820152603760f91b606082015260800190565b8181038181111561095a57634e487b7160e01b600052601160045260246000fd5b634e487b7160e01b600052603260045260246000fd5b600181811c908216806112ee57607f821691505b60208210810361130e57634e487b7160e01b600052602260045260246000fd5b50919050565b601f82111561135e57806000526020600020601f840160051c8101602085101561133b5750805b601f840160051c820191505b8181101561135b5760008155600101611347565b50505b505050565b81810361136e575050565b61137882546112da565b67ffffffffffffffff81111561139057611390610fdc565b6113a48161139e84546112da565b84611314565b6000601f8211600181146113db57600083156113c05750848201545b600184901b600019600386901b1c198216175b85555061135b565b600085815260209020601f19841690600086815260209020845b8381101561141557828601548255600195860195909101906020016113f5565b50858310156114335781850154600019600388901b60f8161c191681555b5050505050600190811b01905550565b634e487b7160e01b600052603160045260246000fd5b60006020828403121561146b57600080fd5b5051919050565b815167ffffffffffffffff81111561148c5761148c610fdc565b61149a8161139e84546112da565b6020601f8211600181146114cc57600083156113c0575081850151600184901b600019600386901b1c198216176113d3565b600084815260208120601f198516915b828110156114fc57878501518255602094850194600190920191016114dc565b508482101561151a5786840151600019600387901b60f8161c191681555b50505050600190811b01905550565b60006020828403121561153b57600080fd5b8151801515811461125b57600080fd5b60006020828403121561155d57600080fd5b815167ffffffffffffffff81111561157457600080fd5b8201601f8101841361158557600080fd5b805161159361106a82611023565b8181528560208385010111156115a857600080fd5b6115b982602083016020860161116b565b9594505050505056fea2646970667358221220402cb1e930d95ad4220bbe5800a446f9fba0e314d1f464b51fa7f4ba0aa65fe664736f6c634300081a0033a2646970667358221220c64c0a4213dd0c0810b8fc53aec386786ab0e6b821266a74d1ac03ca46a452f564736f6c634300081a0033","linkReferences":{}},"methodIdentifiers":{"approveProduct(address,uint256)":"23d0265a","buyProduct(address,uint256,uint256)":"dc78d93b","checkBalance()":"c71daccb","checkEcommerceLength()":"fe0b2b37","createMamashay()":"a5a4b560","deleteProduct(address,uint256)":"d0a664da","ecommerceContracts(uint256)":"fff82c33","mamaToken()":"e6737043","nftNames(address)":"05fec8a3","owner()":"8da5cb5b","publishProduct(address,uint256,string,string,uint256,string)":"93771ea3","withdraw()":"3ccfd60b"},"id":45}