{"abi":[{"type":"constructor","inputs":[{"name":"initialSupply","type":"uint256","internalType":"uint256"},{"name":"_owner","type":"address","internalType":"address"}],"stateMutability":"nonpayable"},{"type":"fallback","stateMutability":"payable"},{"type":"receive","stateMutability":"payable"},{"type":"function","name":"allowance","inputs":[{"name":"owner","type":"address","internalType":"address"},{"name":"spender","type":"address","internalType":"address"}],"outputs":[{"name":"","type":"uint256","internalType":"uint256"}],"stateMutability":"view"},{"type":"function","name":"approve","inputs":[{"name":"spender","type":"address","internalType":"address"},{"name":"value","type":"uint256","internalType":"uint256"}],"outputs":[{"name":"","type":"bool","internalType":"bool"}],"stateMutability":"nonpayable"},{"type":"function","name":"balanceOf","inputs":[{"name":"account","type":"address","internalType":"address"}],"outputs":[{"name":"","type":"uint256","internalType":"uint256"}],"stateMutability":"view"},{"type":"function","name":"burn","inputs":[{"name":"amount","type":"uint256","internalType":"uint256"}],"outputs":[],"stateMutability":"nonpayable"},{"type":"function","name":"burnFrom","inputs":[{"name":"account","type":"address","internalType":"address"},{"name":"amount","type":"uint256","internalType":"uint256"}],"outputs":[],"stateMutability":"nonpayable"},{"type":"function","name":"decimals","inputs":[],"outputs":[{"name":"","type":"uint8","internalType":"uint8"}],"stateMutability":"view"},{"type":"function","name":"getBalance","inputs":[{"name":"_acct","type":"address","internalType":"address"}],"outputs":[{"name":"","type":"uint256","internalType":"uint256"}],"stateMutability":"view"},{"type":"function","name":"name","inputs":[],"outputs":[{"name":"","type":"string","internalType":"string"}],"stateMutability":"view"},{"type":"function","name":"owner","inputs":[],"outputs":[{"name":"","type":"address","internalType":"address"}],"stateMutability":"view"},{"type":"function","name":"renounceOwnership","inputs":[],"outputs":[],"stateMutability":"nonpayable"},{"type":"function","name":"symbol","inputs":[],"outputs":[{"name":"","type":"string","internalType":"string"}],"stateMutability":"view"},{"type":"function","name":"totalSupply","inputs":[],"outputs":[{"name":"","type":"uint256","internalType":"uint256"}],"stateMutability":"view"},{"type":"function","name":"transfer","inputs":[{"name":"to","type":"address","internalType":"address"},{"name":"amount","type":"uint256","internalType":"uint256"}],"outputs":[{"name":"","type":"bool","internalType":"bool"}],"stateMutability":"nonpayable"},{"type":"function","name":"transferFrom","inputs":[{"name":"from","type":"address","internalType":"address"},{"name":"to","type":"address","internalType":"address"},{"name":"amount","type":"uint256","internalType":"uint256"}],"outputs":[{"name":"","type":"bool","internalType":"bool"}],"stateMutability":"nonpayable"},{"type":"function","name":"transferOwnership","inputs":[{"name":"newOwner","type":"address","internalType":"address"}],"outputs":[],"stateMutability":"nonpayable"},{"type":"event","name":"Approval","inputs":[{"name":"owner","type":"address","indexed":true,"internalType":"address"},{"name":"spender","type":"address","indexed":true,"internalType":"address"},{"name":"value","type":"uint256","indexed":false,"internalType":"uint256"}],"anonymous":false},{"type":"event","name":"OwnershipTransferred","inputs":[{"name":"previousOwner","type":"address","indexed":true,"internalType":"address"},{"name":"newOwner","type":"address","indexed":true,"internalType":"address"}],"anonymous":false},{"type":"event","name":"Transfer","inputs":[{"name":"from","type":"address","indexed":true,"internalType":"address"},{"name":"to","type":"address","indexed":true,"internalType":"address"},{"name":"value","type":"uint256","indexed":false,"internalType":"uint256"}],"anonymous":false},{"type":"event","name":"log","inputs":[{"name":"message","type":"string","indexed":false,"internalType":"string"},{"name":"sender","type":"address","indexed":false,"internalType":"address"},{"name":"recipient","type":"address","indexed":false,"internalType":"address"},{"name":"amount","type":"uint256","indexed":false,"internalType":"uint256"}],"anonymous":false},{"type":"error","name":"ERC20InsufficientAllowance","inputs":[{"name":"spender","type":"address","internalType":"address"},{"name":"allowance","type":"uint256","internalType":"uint256"},{"name":"needed","type":"uint256","internalType":"uint256"}]},{"type":"error","name":"ERC20InsufficientBalance","inputs":[{"name":"sender","type":"address","internalType":"address"},{"name":"balance","type":"uint256","internalType":"uint256"},{"name":"needed","type":"uint256","internalType":"uint256"}]},{"type":"error","name":"ERC20InvalidApprover","inputs":[{"name":"approver","type":"address","internalType":"address"}]},{"type":"error","name":"ERC20InvalidReceiver","inputs":[{"name":"receiver","type":"address","internalType":"address"}]},{"type":"error","name":"ERC20InvalidSender","inputs":[{"name":"sender","type":"address","internalType":"address"}]},{"type":"error","name":"ERC20InvalidSpender","inputs":[{"name":"spender","type":"address","internalType":"address"}]},{"type":"error","name":"OwnableInvalidOwner","inputs":[{"name":"owner","type":"address","internalType":"address"}]},{"type":"error","name":"OwnableUnauthorizedAccount","inputs":[{"name":"account","type":"address","internalType":"address"}]}],"bytecode":{"object":"0x608060405234801561001057600080fd5b50604051610f9c380380610f9c83398101604081905261002f916102a7565b33604051806040016040528060048152602001634d616d6160e01b815250604051806040016040528060038152602001624d4d4160e81b81525081600390816100789190610385565b5060046100858282610385565b5050506001600160a01b0381166100b757604051631e4fbdf760e01b8152600060048201526024015b60405180910390fd5b6100c0816100f1565b506100cb3383610143565b600780546001600160a01b0319166001600160a01b03929092169190911790555061046b565b600580546001600160a01b038381166001600160a01b0319831681179093556040519116919082907f8be0079c531659141344cd1fd0a4f28419497f9722a3daafe3b4186f6b6457e090600090a35050565b6001600160a01b03821661016d5760405163ec442f0560e01b8152600060048201526024016100ae565b6101796000838361017d565b5050565b6001600160a01b0383166101a857806002600082825461019d9190610444565b9091555061021a9050565b6001600160a01b038316600090815260208190526040902054818110156101fb5760405163391434e360e21b81526001600160a01b038516600482015260248101829052604481018390526064016100ae565b6001600160a01b03841660009081526020819052604090209082900390555b6001600160a01b03821661023657600280548290039055610255565b6001600160a01b03821660009081526020819052604090208054820190555b816001600160a01b0316836001600160a01b03167fddf252ad1be2c89b69c2b068fc378daa952ba7f163c4a11628f55a4df523b3ef8360405161029a91815260200190565b60405180910390a3505050565b600080604083850312156102ba57600080fd5b825160208401519092506001600160a01b03811681146102d957600080fd5b809150509250929050565b634e487b7160e01b600052604160045260246000fd5b600181811c9082168061030e57607f821691505b60208210810361032e57634e487b7160e01b600052602260045260246000fd5b50919050565b601f821115610380576000816000526020600020601f850160051c8101602086101561035d5750805b601f850160051c820191505b8181101561037c57828155600101610369565b5050505b505050565b81516001600160401b0381111561039e5761039e6102e4565b6103b2816103ac84546102fa565b84610334565b602080601f8311600181146103e757600084156103cf5750858301515b600019600386901b1c1916600185901b17855561037c565b600085815260208120601f198616915b82811015610416578886015182559484019460019091019084016103f7565b50858210156104345787850151600019600388901b60f8161c191681555b5050505050600190811b01905550565b8082018082111561046557634e487b7160e01b600052601160045260246000fd5b92915050565b610b228061047a6000396000f3fe6080604052600436106100ec5760003560e01c8063715018a61161008a578063a9059cbb11610059578063a9059cbb14610301578063dd62ed3e14610321578063f2fde38b14610341578063f8b2cb4f1461036157610146565b8063715018a61461028f57806379cc6790146102a45780638da5cb5b146102c457806395d89b41146102ec57610146565b806323b872dd116100c657806323b872dd146101fd578063313ce5671461021d57806342966c681461023957806370a082311461025957610146565b806306fdde0314610183578063095ea7b3146101ae57806318160ddd146101de57610146565b36610146577f8ef3f399de1ebecd7840dee5f4cdc1bad43021ab37fa3acdd3dfbd36f7092e7b333034604051610124939291906108ed565b60405180910390a16007546101449030906001600160a01b031634610397565b005b7f8ef3f399de1ebecd7840dee5f4cdc1bad43021ab37fa3acdd3dfbd36f7092e7b333034604051610179939291906108ed565b60405180910390a1005b34801561018f57600080fd5b50610198610400565b6040516101a59190610937565b60405180910390f35b3480156101ba57600080fd5b506101ce6101c93660046109a2565b610492565b60405190151581526020016101a5565b3480156101ea57600080fd5b506002545b6040519081526020016101a5565b34801561020957600080fd5b506101ce6102183660046109cc565b6104ac565b34801561022957600080fd5b50604051601281526020016101a5565b34801561024557600080fd5b50610144610254366004610a08565b61054d565b34801561026557600080fd5b506101ef610274366004610a21565b6001600160a01b031660009081526020819052604090205490565b34801561029b57600080fd5b5061014461055a565b3480156102b057600080fd5b506101446102bf3660046109a2565b61056e565b3480156102d057600080fd5b506005546040516001600160a01b0390911681526020016101a5565b3480156102f857600080fd5b5061019861059c565b34801561030d57600080fd5b506101ce61031c3660046109a2565b6105ab565b34801561032d57600080fd5b506101ef61033c366004610a43565b6105c1565b34801561034d57600080fd5b5061014461035c366004610a21565b6105ec565b34801561036d57600080fd5b506101ef61037c366004610a21565b6001600160a01b031660009081526006602052604090205490565b6001600160a01b0383166103c657604051634b637e8f60e11b8152600060048201526024015b60405180910390fd5b6001600160a01b0382166103f05760405163ec442f0560e01b8152600060048201526024016103bd565b6103fb838383610627565b505050565b60606003805461040f90610a76565b80601f016020809104026020016040519081016040528092919081815260200182805461043b90610a76565b80156104885780601f1061045d57610100808354040283529160200191610488565b820191906000526020600020905b81548152906001019060200180831161046b57829003601f168201915b5050505050905090565b6000336104a0818585610751565b60019150505b92915050565b60006104b9848484610397565b60006104c585336105c1565b9050828110156105285760405162461bcd60e51b815260206004820152602860248201527f45524332303a207472616e7366657220616d6f756e74206578636565647320616044820152676c6c6f77616e636560c01b60648201526084016103bd565b60006105348483610ac6565b9050610541863383610751565b50600195945050505050565b610557338261075e565b50565b610562610798565b61056c60006107c5565b565b60008161057b84336105c1565b6105859190610ac6565b9050610592833383610751565b6103fb838361075e565b60606004805461040f90610a76565b60006105b8338484610397565b50600192915050565b6001600160a01b03918216600090815260016020908152604080832093909416825291909152205490565b6105f4610798565b6001600160a01b03811661061e57604051631e4fbdf760e01b8152600060048201526024016103bd565b610557816107c5565b6001600160a01b0383166106525780600260008282546106479190610ad9565b909155506106c49050565b6001600160a01b038316600090815260208190526040902054818110156106a55760405163391434e360e21b81526001600160a01b038516600482015260248101829052604481018390526064016103bd565b6001600160a01b03841660009081526020819052604090209082900390555b6001600160a01b0382166106e0576002805482900390556106ff565b6001600160a01b03821660009081526020819052604090208054820190555b816001600160a01b0316836001600160a01b03167fddf252ad1be2c89b69c2b068fc378daa952ba7f163c4a11628f55a4df523b3ef8360405161074491815260200190565b60405180910390a3505050565b6103fb8383836001610817565b6001600160a01b03821661078857604051634b637e8f60e11b8152600060048201526024016103bd565b61079482600083610627565b5050565b6005546001600160a01b0316331461056c5760405163118cdaa760e01b81523360048201526024016103bd565b600580546001600160a01b038381166001600160a01b0319831681179093556040519116919082907f8be0079c531659141344cd1fd0a4f28419497f9722a3daafe3b4186f6b6457e090600090a35050565b6001600160a01b0384166108415760405163e602df0560e01b8152600060048201526024016103bd565b6001600160a01b03831661086b57604051634a1406b160e11b8152600060048201526024016103bd565b6001600160a01b03808516600090815260016020908152604080832093871683529290522082905580156108e757826001600160a01b0316846001600160a01b03167f8c5be1e5ebec7d5bd14f71427d1e84f3dd0314c0f7b2291e5b200ac8c7c3b925846040516108de91815260200190565b60405180910390a35b50505050565b6080808252600f908201526e105b5bdd5b9d081c9958d95a5d9959608a1b60a08201526001600160a01b039384166020820152919092166040820152606081019190915260c00190565b60006020808352835180602085015260005b8181101561096557858101830151858201604001528201610949565b506000604082860101526040601f19601f8301168501019250505092915050565b80356001600160a01b038116811461099d57600080fd5b919050565b600080604083850312156109b557600080fd5b6109be83610986565b946020939093013593505050565b6000806000606084860312156109e157600080fd5b6109ea84610986565b92506109f860208501610986565b9150604084013590509250925092565b600060208284031215610a1a57600080fd5b5035919050565b600060208284031215610a3357600080fd5b610a3c82610986565b9392505050565b60008060408385031215610a5657600080fd5b610a5f83610986565b9150610a6d60208401610986565b90509250929050565b600181811c90821680610a8a57607f821691505b602082108103610aaa57634e487b7160e01b600052602260045260246000fd5b50919050565b634e487b7160e01b600052601160045260246000fd5b818103818111156104a6576104a6610ab0565b808201808211156104a6576104a6610ab056fea264697066735822122012b671a819de807c0ffeefc2b68956b15011879489945d45dc94a4dad54cc00464736f6c63430008190033","linkReferences":{}},"methodIdentifiers":{"allowance(address,address)":"dd62ed3e","approve(address,uint256)":"095ea7b3","balanceOf(address)":"70a08231","burn(uint256)":"42966c68","burnFrom(address,uint256)":"79cc6790","decimals()":"313ce567","getBalance(address)":"f8b2cb4f","name()":"06fdde03","owner()":"8da5cb5b","renounceOwnership()":"715018a6","symbol()":"95d89b41","totalSupply()":"18160ddd","transfer(address,uint256)":"a9059cbb","transferFrom(address,address,uint256)":"23b872dd","transferOwnership(address)":"f2fde38b"},"id":31}