{"abi":[{"type":"constructor","inputs":[{"name":"initialSupply","type":"uint256","internalType":"uint256"},{"name":"_owner","type":"address","internalType":"address"}],"stateMutability":"nonpayable"},{"type":"fallback","stateMutability":"payable"},{"type":"receive","stateMutability":"payable"},{"type":"function","name":"allowance","inputs":[{"name":"owner","type":"address","internalType":"address"},{"name":"spender","type":"address","internalType":"address"}],"outputs":[{"name":"","type":"uint256","internalType":"uint256"}],"stateMutability":"view"},{"type":"function","name":"approve","inputs":[{"name":"spender","type":"address","internalType":"address"},{"name":"amount","type":"uint256","internalType":"uint256"}],"outputs":[{"name":"","type":"bool","internalType":"bool"}],"stateMutability":"nonpayable"},{"type":"function","name":"balanceOf","inputs":[{"name":"account","type":"address","internalType":"address"}],"outputs":[{"name":"","type":"uint256","internalType":"uint256"}],"stateMutability":"view"},{"type":"function","name":"burn","inputs":[{"name":"amount","type":"uint256","internalType":"uint256"}],"outputs":[{"name":"value","type":"bool","internalType":"bool"}],"stateMutability":"nonpayable"},{"type":"function","name":"burnFrom","inputs":[{"name":"account","type":"address","internalType":"address"},{"name":"amount","type":"uint256","internalType":"uint256"}],"outputs":[{"name":"value","type":"bool","internalType":"bool"}],"stateMutability":"nonpayable"},{"type":"function","name":"decimals","inputs":[],"outputs":[{"name":"","type":"uint8","internalType":"uint8"}],"stateMutability":"view"},{"type":"function","name":"decreaseAllowance","inputs":[{"name":"spender","type":"address","internalType":"address"},{"name":"subtractedValue","type":"uint256","internalType":"uint256"}],"outputs":[{"name":"","type":"bool","internalType":"bool"}],"stateMutability":"nonpayable"},{"type":"function","name":"getBalance","inputs":[{"name":"_acct","type":"address","internalType":"address"}],"outputs":[{"name":"","type":"uint256","internalType":"uint256"}],"stateMutability":"view"},{"type":"function","name":"increaseAllowance","inputs":[{"name":"spender","type":"address","internalType":"address"},{"name":"addedValue","type":"uint256","internalType":"uint256"}],"outputs":[{"name":"","type":"bool","internalType":"bool"}],"stateMutability":"nonpayable"},{"type":"function","name":"mint","inputs":[{"name":"reciever","type":"address","internalType":"address"},{"name":"value","type":"uint256","internalType":"uint256"}],"outputs":[],"stateMutability":"payable"},{"type":"function","name":"name","inputs":[],"outputs":[{"name":"","type":"string","internalType":"string"}],"stateMutability":"view"},{"type":"function","name":"symbol","inputs":[],"outputs":[{"name":"","type":"string","internalType":"string"}],"stateMutability":"view"},{"type":"function","name":"totalSupply","inputs":[],"outputs":[{"name":"","type":"uint256","internalType":"uint256"}],"stateMutability":"view"},{"type":"function","name":"transfer","inputs":[{"name":"to","type":"address","internalType":"address"},{"name":"amount","type":"uint256","internalType":"uint256"}],"outputs":[{"name":"","type":"bool","internalType":"bool"}],"stateMutability":"nonpayable"},{"type":"function","name":"transferFrom","inputs":[{"name":"from","type":"address","internalType":"address"},{"name":"to","type":"address","internalType":"address"},{"name":"amount","type":"uint256","internalType":"uint256"}],"outputs":[{"name":"","type":"bool","internalType":"bool"}],"stateMutability":"nonpayable"},{"type":"event","name":"Approval","inputs":[{"name":"owner","type":"address","indexed":true,"internalType":"address"},{"name":"spender","type":"address","indexed":true,"internalType":"address"},{"name":"value","type":"uint256","indexed":false,"internalType":"uint256"}],"anonymous":false},{"type":"event","name":"Transfer","inputs":[{"name":"from","type":"address","indexed":true,"internalType":"address"},{"name":"to","type":"address","indexed":true,"internalType":"address"},{"name":"value","type":"uint256","indexed":false,"internalType":"uint256"}],"anonymous":false},{"type":"event","name":"log","inputs":[{"name":"message","type":"string","indexed":false,"internalType":"string"},{"name":"sender","type":"address","indexed":false,"internalType":"address"},{"name":"recipient","type":"address","indexed":false,"internalType":"address"},{"name":"amount","type":"uint256","indexed":false,"internalType":"uint256"}],"anonymous":false}],"bytecode":{"object":"0x608060405234801561001057600080fd5b5060405161115038038061115083398101604081905261002f916101d0565b604051806040016040528060048152602001634d616d6160e01b815250604051806040016040528060038152602001624d4d4160e81b815250816003908161007791906102ab565b50600461008482826102ab565b50505061009733836100ca60201b60201c565b6001600160a01b0316600081815260056020526040902091909155600680546001600160a01b0319169091179055610390565b6001600160a01b0382166101245760405162461bcd60e51b815260206004820152601f60248201527f45524332303a206d696e7420746f20746865207a65726f206164647265737300604482015260640160405180910390fd5b610130600083836101b9565b80600260008282546101429190610369565b90915550506001600160a01b0382166000908152602081905260408120805483929061016f908490610369565b90915550506040518181526001600160a01b038316906000907fddf252ad1be2c89b69c2b068fc378daa952ba7f163c4a11628f55a4df523b3ef9060200160405180910390a35050565b6101cb8383836001600160e01b038416565b505050565b600080604083850312156101e357600080fd5b825160208401519092506001600160a01b038116811461020257600080fd5b809150509250929050565b634e487b7160e01b600052604160045260246000fd5b600181811c9082168061023757607f821691505b60208210810361025757634e487b7160e01b600052602260045260246000fd5b50919050565b601f8211156101cb57806000526020600020601f840160051c810160208510156102845750805b601f840160051c820191505b818110156102a45760008155600101610290565b5050505050565b81516001600160401b038111156102c4576102c461020d565b6102d8816102d28454610223565b8461025d565b6020601f82116001811461030c57600083156102f45750848201515b600019600385901b1c1916600184901b1784556102a4565b600084815260208120601f198516915b8281101561033c578785015182556020948501946001909201910161031c565b508482101561035a5786840151600019600387901b60f8161c191681555b50505050600190811b01905550565b8082018082111561038a57634e487b7160e01b600052601160045260246000fd5b92915050565b610db18061039f6000396000f3fe6080604052600436106100ec5760003560e01c806342966c681161008a578063a457c2d711610059578063a457c2d7146102f7578063a9059cbb14610317578063dd62ed3e14610337578063f8b2cb4f1461035757610146565b806342966c681461026c57806370a082311461028c57806379cc6790146102c257806395d89b41146102e257610146565b806323b872dd116100c657806323b872dd146101fd578063313ce5671461021d578063395093511461023957806340c10f191461025957610146565b806306fdde0314610183578063095ea7b3146101ae57806318160ddd146101de57610146565b36610146577f8ef3f399de1ebecd7840dee5f4cdc1bad43021ab37fa3acdd3dfbd36f7092e7b33303460405161012493929190610b7c565b60405180910390a16006546101449030906001600160a01b03163461038d565b005b7f8ef3f399de1ebecd7840dee5f4cdc1bad43021ab37fa3acdd3dfbd36f7092e7b33303460405161017993929190610b7c565b60405180910390a1005b34801561018f57600080fd5b50610198610561565b6040516101a59190610bc6565b60405180910390f35b3480156101ba57600080fd5b506101ce6101c9366004610c30565b6105f3565b60405190151581526020016101a5565b3480156101ea57600080fd5b506002545b6040519081526020016101a5565b34801561020957600080fd5b506101ce610218366004610c5a565b61060d565b34801561022957600080fd5b50604051601281526020016101a5565b34801561024557600080fd5b506101ce610254366004610c30565b6106ae565b610144610267366004610c30565b6106ed565b34801561027857600080fd5b506101ce610287366004610c97565b6106fb565b34801561029857600080fd5b506101ef6102a7366004610cb0565b6001600160a01b031660009081526020819052604090205490565b3480156102ce57600080fd5b506101ce6102dd366004610c30565b61070f565b3480156102ee57600080fd5b5061019861073e565b34801561030357600080fd5b506101ce610312366004610c30565b61074d565b34801561032357600080fd5b506101ce610332366004610c30565b6107ea565b34801561034357600080fd5b506101ef610352366004610cd2565b610800565b34801561036357600080fd5b506101ef610372366004610cb0565b6001600160a01b031660009081526005602052604090205490565b6001600160a01b0383166103f65760405162461bcd60e51b815260206004820152602560248201527f45524332303a207472616e736665722066726f6d20746865207a65726f206164604482015264647265737360d81b60648201526084015b60405180910390fd5b6001600160a01b0382166104585760405162461bcd60e51b815260206004820152602360248201527f45524332303a207472616e7366657220746f20746865207a65726f206164647260448201526265737360e81b60648201526084016103ed565b6001600160a01b038316600090815260208190526040902054818110156104d05760405162461bcd60e51b815260206004820152602660248201527f45524332303a207472616e7366657220616d6f756e7420657863656564732062604482015265616c616e636560d01b60648201526084016103ed565b6001600160a01b03808516600090815260208190526040808220858503905591851681529081208054849290610507908490610d1b565b92505081905550826001600160a01b0316846001600160a01b03167fddf252ad1be2c89b69c2b068fc378daa952ba7f163c4a11628f55a4df523b3ef8460405161055391815260200190565b60405180910390a350505050565b60606003805461057090610d2e565b80601f016020809104026020016040519081016040528092919081815260200182805461059c90610d2e565b80156105e95780601f106105be576101008083540402835291602001916105e9565b820191906000526020600020905b8154815290600101906020018083116105cc57829003601f168201915b5050505050905090565b60003361060181858561082b565b60019150505b92915050565b600061061a84848461038d565b60006106268533610800565b9050828110156106895760405162461bcd60e51b815260206004820152602860248201527f45524332303a207472616e7366657220616d6f756e74206578636565647320616044820152676c6c6f77616e636560c01b60648201526084016103ed565b60006106958483610d68565b90506106a286338361082b565b50600195945050505050565b3360008181526001602090815260408083206001600160a01b038716845290915281205490919061060190829086906106e8908790610d1b565b61082b565b6106f7828261094f565b5050565b60006107073383610a2e565b506001919050565b6000808261071d8533610800565b6107279190610d68565b905061073484338361082b565b6106018484610a2e565b60606004805461057090610d2e565b3360008181526001602090815260408083206001600160a01b0387168452909152812054909190838110156107d25760405162461bcd60e51b815260206004820152602560248201527f45524332303a2064656372656173656420616c6c6f77616e63652062656c6f77604482015264207a65726f60d81b60648201526084016103ed565b6107df828686840361082b565b506001949350505050565b60006107f733848461038d565b50600192915050565b6001600160a01b03918216600090815260016020908152604080832093909416825291909152205490565b6001600160a01b03831661088d5760405162461bcd60e51b8152602060048201526024808201527f45524332303a20617070726f76652066726f6d20746865207a65726f206164646044820152637265737360e01b60648201526084016103ed565b6001600160a01b0382166108ee5760405162461bcd60e51b815260206004820152602260248201527f45524332303a20617070726f766520746f20746865207a65726f206164647265604482015261737360f01b60648201526084016103ed565b6001600160a01b0383811660008181526001602090815260408083209487168084529482529182902085905590518481527f8c5be1e5ebec7d5bd14f71427d1e84f3dd0314c0f7b2291e5b200ac8c7c3b925910160405180910390a3505050565b6001600160a01b0382166109a55760405162461bcd60e51b815260206004820152601f60248201527f45524332303a206d696e7420746f20746865207a65726f20616464726573730060448201526064016103ed565b80600260008282546109b79190610d1b565b90915550506001600160a01b038216600090815260208190526040812080548392906109e4908490610d1b565b90915550506040518181526001600160a01b038316906000907fddf252ad1be2c89b69c2b068fc378daa952ba7f163c4a11628f55a4df523b3ef9060200160405180910390a35050565b6001600160a01b038216610a8e5760405162461bcd60e51b815260206004820152602160248201527f45524332303a206275726e2066726f6d20746865207a65726f206164647265736044820152607360f81b60648201526084016103ed565b6001600160a01b03821660009081526020819052604090205481811015610b025760405162461bcd60e51b815260206004820152602260248201527f45524332303a206275726e20616d6f756e7420657863656564732062616c616e604482015261636560f01b60648201526084016103ed565b6001600160a01b0383166000908152602081905260408120838303905560028054849290610b31908490610d68565b90915550506040518281526000906001600160a01b038516907fddf252ad1be2c89b69c2b068fc378daa952ba7f163c4a11628f55a4df523b3ef9060200160405180910390a3505050565b6080808252600f908201526e105b5bdd5b9d081c9958d95a5d9959608a1b60a08201526001600160a01b039384166020820152919092166040820152606081019190915260c00190565b602081526000825180602084015260005b81811015610bf45760208186018101516040868401015201610bd7565b506000604082850101526040601f19601f83011684010191505092915050565b80356001600160a01b0381168114610c2b57600080fd5b919050565b60008060408385031215610c4357600080fd5b610c4c83610c14565b946020939093013593505050565b600080600060608486031215610c6f57600080fd5b610c7884610c14565b9250610c8660208501610c14565b929592945050506040919091013590565b600060208284031215610ca957600080fd5b5035919050565b600060208284031215610cc257600080fd5b610ccb82610c14565b9392505050565b60008060408385031215610ce557600080fd5b610cee83610c14565b9150610cfc60208401610c14565b90509250929050565b634e487b7160e01b600052601160045260246000fd5b8082018082111561060757610607610d05565b600181811c90821680610d4257607f821691505b602082108103610d6257634e487b7160e01b600052602260045260246000fd5b50919050565b8181038181111561060757610607610d0556fea2646970667358221220dea21f3b20ed4bed87e060783fd6b711d81525722d1c0b9b57c4a54bd5192f7264736f6c634300081a0033","linkReferences":{}},"methodIdentifiers":{"allowance(address,address)":"dd62ed3e","approve(address,uint256)":"095ea7b3","balanceOf(address)":"70a08231","burn(uint256)":"42966c68","burnFrom(address,uint256)":"79cc6790","decimals()":"313ce567","decreaseAllowance(address,uint256)":"a457c2d7","getBalance(address)":"f8b2cb4f","increaseAllowance(address,uint256)":"39509351","mint(address,uint256)":"40c10f19","name()":"06fdde03","symbol()":"95d89b41","totalSupply()":"18160ddd","transfer(address,uint256)":"a9059cbb","transferFrom(address,address,uint256)":"23b872dd"},"id":41}